:100000000C9471070C94B8070C94B8070C94B807BB
:100010000C94B8070C94B8070C94B8070C94B80764
:100020000C94B8070C94B8070C945D2D0C94992C83
:100030000C94091B0C94B8070C94B8070C94B807DF
:100040000C94B8070C94B8070C94B8070C94B80734
:100050000C94B8070C94101A0C94B8070C94B807B9
:100060000C94B8070C94B8070C94B8070C94B80714
:100070000C94B8070C94B8070C94B8070C94B80704
:100080000C94B8070C94B8070C94B8070C94B807F4
:100090000C94B8070C94B8070C94B8070C94B807E4
:1000A0000C94B8070C94B8070C94B8073D0E3D0E9D
:1000B000820E820EDB0EF90E95109510040FE60FDE
:1000C000F90FF90F281316133A13B0110F140F1468
:1000D00013130F140F1467130F147B13ED130F1466
:1000E0000F140F140F14A9130F140F1496130F14D9
:1000F00053130F140F1409140914091409140914C3
:1001000009140914091409140B140F1428130B13E0
:100110000F140F140F140F140F140F140F140F14C7
:100120000F140F140B140F140F1413130F140714C0
:1001300007140714071407140714071407140714E7
:100140000B14B32ADA2A7B2CDA2A7B2C262B492B98
:100150007B2C3E2C4D2C152F152F282F282F1E2F92
:10016000282F282F282F152F152F232F282F282F02
:10017000232F556E69636F646520696E70757420F6
:100180006D6F64652073657420746F3A2025750A5D
:100190000044454255473A2064697361626C656466
:1001A0002E0A0044454255473A20656E61626C65EF
:1001B000642E0A000A002575002E6E6B726F3A20BD
:1001C000000A002575002E737761705F6261636BB2
:1001D000736C6173685F6261636B73706163653ACE
:1001E00020000A002575002E737761705F677261C9
:1001F00076655F6573633A20000A002575002E6EF0
:100200006F5F6775693A20000A002575002E7377C5
:1002100061705F72616C745F726775693A20000A81
:10022000002575002E737761705F6C616C745F6C74
:100230006775693A20000A002575002E7377617092
:100240005F7263746C5F726775693A20000A0025FB
:1002500075002E737761705F6C63746C5F6C67758B
:10026000693A20000A002575002E636170736C6F77
:10027000636B5F746F5F636F6E74726F6C3A2000B4
:100280000A002575002E737761705F636F6E74725C
:100290006F6C5F636170736C6F636B3A20000A0070
:1002A00025303258006B65796D61705F636F6E66E3
:1002B00069672E7261773A20000A002575002E6D5D
:1002C0006F7573653A20000A002575002E6B6579FD
:1002D000626F6172643A20000A002575002E6D611C
:1002E000747269783A20000A002575002E656E61E7
:1002F000626C653A20000A0025303258006465625D
:1003000075675F636F6E6669672E7261773A20006A
:100310000A0025750064656661756C745F6C6179AF
:1003200065723A20000A092D204D61676963202D0E
:100330000A443A094465627567204D6573736167C5
:100340006520546F67676C650A583A094D6174728D
:100350006978204465627567204D6F646520546F2D
:1003600067676C65202D2053686F77206B65797007
:1003700072657373657320696E206D61747269783C
:1003800020677269640A4B3A094B6579626F617242
:100390006420446562756720546F67676C65202D23
:1003A0002053686F77206B65797072657373207264
:1003B00065706F72740A4D3A094465627567204D25
:1003C0006F75736520546F67676C650A563A0956F6
:1003D000657273696F6E0A533A0953746174757369
:1003E0000A433A09416374697661746520436F6E0C
:1003F000736F6C65204D6F64650A46312D46313050
:100400003A0953776974636820746F204C61796589
:100410007220302D392028463130203D204C3029A3
:100420000A302D393A0953776974636820746F2054
:100430004C6179657220302D390A47524156453A50
:100440000953776974636820746F204C6179657211
:1004500020302028616C7465726E617465290A42CF
:100460003A094A756D7020746F20426F6F746C6F1B
:10047000616465720A4553433A094A756D70207488
:100480006F20426F6F746C6F616465722028616CBD
:100490007465726E617465290A453A095072696E15
:1004A0007420454550524F4D2053657474696E67F2
:1004B000730A4253504143453A09436C65617220C7
:1004C000454550524F4D0A4E3A094E4B524F20541B
:1004D0006F67676C650A004743433A20352E342E18
:1004E00030204156522D4C4942433A20322E302E74
:1004F00030204156525F415243483A20617672356E
:100500000A004F5054494F4E533A204C5546412013
:100510004D4F5553454B45592045585452414B4535
:100520005920434F4E534F4C4520434F4D4D414E64
:1005300044204E4B524F20343039360A0042554940
:100540004C443A202028466562203238203230322E
:1005500031290A005649443A20307831323039285E
:100560004B6579626F617264696F29205049443A22
:100570002030783233303328417472657573292006
:100580005645523A203078303030300A000A092D72
:100590002056657273696F6E202D0A0074696D654F
:1005A000725F72656164333228293A202530346CD9
:1005B000580A006B65796D61705F636F6E6669677D
:1005C0002E6E6B726F3A2025580A006B6579626F48
:1005D0006172645F69646C653A2025580A006B6536
:1005E00079626F6172645F70726F746F636F6C3A7F
:1005F0002025580A00686F73745F6B6579626F61BC
:1006000072645F6C65647328293A2025580A000AD1
:10061000092D20537461747573202D0A003F004E1C
:100620004B524F3A206F66660A004E4B524F3A20AB
:100630006F6E0A000A6D6F7573653A206F66660A01
:10064000000A6D6F7573653A206F6E0A000A6B655C
:1006500079626F6172643A206F66660A000A6B65A0
:1006600079626F6172643A206F6E0A000A6D61747C
:100670007269783A206F66660A000A6D6174726961
:10068000783A206F6E0A000A64656275673A206FD7
:1006900066660A000A64656275673A206F6E0A0032
:1006A0000A0A4A756D70696E6720746F20626F6FF9
:1006B000746C6F616465722E2E2E2000433E200004
:1006C000436C656172696E6720454550524F4D0A13
:1006D000006565636F6E6669673A0A001E001F0059
:1006E000200021002200000000002300240025003B
:1006F0002600270014001A0008001500170000004B
:1007000000001C0018000C00120013000462160008
:10071000070009000A006500E3000B000D000E0051
:100720000F0033721D611B74066419000500005729
:100730002C001100100036643774387142004300F9
:10074000440045004800000000007B004A004900CA
:100750004B002B5D3E003F00400041004700000081
:1007600000007D004D0052004E002A5D3A623B00C1
:100770003C003D004600010001007C00500051009B
:100780004F00E500E000E600E20001570000010034
:1007900001007A000000E200E600E4000000000032
:1007A000BE00BD007B00000000002E005F00600066
:1007B00061005600AC00AE00AD00AB007D00000053
:1007C000000054005C005D005E005700E100A800DE
:1007D000AA00A9007C0001000100550059005A0040
:1007E0005B006700E000E600E20001577A000100CC
:1007F000010021000A006200630022000000FD00E9
:10080000FE00FF007B00000000007B0000000000F5
:1008100000000000F600F500F900F4007D00000083
:1008200000007D00F400F000F500F600E100FB00A0
:10083000FA00FC007C00010001007C00F200F100E5
:10084000F300E500E000E600E20001577A00010055
:1008500001007A00E200E6002800E4000A002530EA
:10086000325820006B6579626F6172645F726570E7
:100870006F72743A20006164645F6B65795F6269CE
:10088000743A2063616E2774206164643A202530D5
:1008900032580A0064656C5F6B65795F6269743A0F
:1008A0002063616E27742064656C3A2025303258CD
:1008B0000A00290A002575002F002575005D280013
:1008C0002564002000256400200025640020002508
:1008D00064007C0025303258006D6F7573656B6560
:1008E00079205B62746E7C782079207620685D28A0
:1008F0007265702F61636C293A205B001B7406647B
:1009000019000000650000570000E3002C00000003
:100910000D000E000F00000018000C001200000077
:100920002400250026000000160007000900000032
:100930001A000800150000001F0020002100000020
:100940000900070000001500080000000D000E005F
:10095000000018000C0000002400250000000E001C
:100960000F0000000C00120000002500260000000F
:100970006D6B5F776865656C5F74696D655F746FDB
:100980005F6D6178203D2025640A006D6B5F77689C
:1009900065656C5F6D61785F7370656564203D208F
:1009A00025640A006D6B5F74696D655F746F5F6DC0
:1009B0006178203D2025640A006D6B5F6D61785F72
:1009C0007370656564203D2025640A006D6B5F6966
:1009D0006E74657276616C203D2025640A006D6B33
:1009E0005F64656C6179203D2025640A006D6B5F52
:1009F000776865656C5F74696D655F746F5F6D6165
:100A000078203D2025640A006D6B5F776865656C12
:100A10005F6D61785F7370656564203D2025640AB1
:100A2000006D6B5F74696D655F746F5F6D617820D9
:100A30003D2025640A006D6B5F6D61785F737065A2
:100A40006564203D2025640A006D6B5F696E7465E6
:100A50007276616C203D2025640A006D6B5F6465D1
:100A60006C6179203D2025640A00776865726520F5
:100A700064656C74613A20637572736F723D2564AE
:100A80002C20776865656C3D25640A536565206890
:100A90007474703A2F2F656E2E77696B6970656478
:100AA00069612E6F72672F77696B692F4D6F757350
:100AB000655F6B6579730A000A092D204D6F7573A8
:100AC000656B6579202D0A4553432F713A0971757D
:100AD00069740A313A0964656C6179282A31306D8C
:100AE00073290A323A09696E74657276616C286DF1
:100AF00073290A333A096D61785F73706565640A1A
:100B0000343A0974696D655F746F5F6D61780A3599
:100B10003A09776865656C5F6D61785F73706565CC
:100B2000640A363A09776865656C5F74696D655F5C
:100B3000746F5F6D61780A0A703A097072696E7439
:100B40002076616C7565730A643A09736574206474
:100B5000656661756C74730A75703A092B310A64A5
:100B60006F776E3A092D310A706775703A092B312B
:100B7000300A7067646F776E3A092D31300A0A7354
:100B800070656564203D2064656C7461202A206D69
:100B900061785F7370656564202A202872657065CE
:100BA0006174202F2074696D655F746F5F6D61786B
:100BB000290A004C25640A00556E69636F6465203C
:100BC000696E707574206D6F646520696E6974203C
:100BD000746F3A2025750A000A002530313662000C
:100BE0003A200025303258000A722F63203031320B
:100BF000333435363738394142434445460A000AD2
:100C00000025303258006B6579626F6172645F73E2
:100C100065745F6C65643A20005B735D004B6579B9
:100C2000626F6172642073746172742E0A000631FF
:100C3000FF0974A1010975150026FF0095207508AC
:100C400081020976150026FF00952075089102C0E3
:100C500005010902A10185020901A1000509190187
:100C6000290515002501950575018102950175037A
:100C700081010501093009311581257F950275082B
:100C8000810609381581257F950175088106050CB7
:100C90000A38021581257F950175088106C0C005B7
:100CA000010980A101850319012AB700150126B7A2
:100CB00000950175108100C0050C0901A101850492
:100CC00019012AA002150126A002950175108100C4
:100CD000C005010906A1018505050719E029E715E9
:100CE0000025019508750181020507190029EF15F6
:100CF00000250195F0750181020508190129059566
:100D00000575019102950175039101C00501090660
:100D1000A101050719E029E71500250195087501CE
:100D200081029501750881010507190029FF150049
:100D300026FF00950675088100050819012905950B
:100D40000575019102950175039101C05B435D003A
:100D50005B445D005B535D005B575D005B525D0073
:100D600009025B00030100A0FA090400000103016D
:100D7000010009211101000122400007058103083B
:100D8000000A09040100010300000009211101000B
:100D90000122BC000705820320000A0904020002A8
:100DA0000300000009211101000122220007058330
:100DB00003200001070503032000011201100100B8
:100DC000000008091203230000010200010E034184
:100DD0000074007200650075007300000016034B7C
:100DE000006500790062006F0061007200640069B4
:100DF000006F000000040309040A092D20436F6EF0
:100E0000736F6C65202D0A4553432F713A09717534
:100E100069740A6D3A096D6F7573656B65790A00BF
:100E20003F004D3E2000433E20000A00257500365D
:100E30003A20776865656C5F74696D655F746F5F94
:100E40006D61783A20000A00257500353A207768F0
:100E500065656C5F6D61785F73706565643A2000ED
:100E60000A00257500343A2074696D655F746F5F00
:100E70006D61783A20000A00257500333A206D61D3
:100E8000785F73706565643A20000A00257500324A
:100E90003A20696E74657276616C286D73293A2008
:100EA000000A00257500313A2064656C6179282AB2
:100EB00031306D73293A20000A092D2056616C7576
:100EC0006573202D0A004D3E004D25643E20003FF5
:100ED000007365742064656661756C740A00433E36
:100EE000200011241FBECFEFDAE0DEBFCDBF04B675
:100EF00003FE27C080912D0490912E04A0912F0411
:100F0000B09130048730904BA740B04BD1F4109291
:100F10002D0410922E0410922F041092300414BE4F
:100F200084B7877F84BF0FB6F894A895809160003E
:100F3000886180936000109260000FBEE0E0F8E3EB
:100F4000099512E0A0E0B1E0ECECF9E602C00590F2
:100F50000D92A439B107D9F724E0A4E9B2E001C0A9
:100F60001D92AD32B207E1F70E9482260C94E43460
:100F70000C940000FF93EF93E0919402F09195029E
:100F8000309709F00995EF91FF910895FC01859143
:100F9000803011F0EFDFFBCF0895FF27E0E230E271
:100FA00047FF0CC0419597FF09C0EDE26095709531
:100FB00080959095611D711D811D911D27FF02C0B7
:100FC000219530E350E2AA27660F771F881F991FEB
:100FD000AA1FA41710F0A41B63955A95A9F7AA306D
:100FE00008F0A95FA05DAF93F395611571058105C8
:100FF000910541F7ED3211F4EF93F395F21718F4E0
:101000003F93F395FBCF8F91B5DFFA95E1F7089504
:10101000E991F9918591803021F0853219F0AADFAC
:10102000F9CF089520E0E89455915532C1F350333B
:1010300011F4689455915A3348F4505390F3220FA9
:10104000022E220F220F200D250FF4CF0EF4219532
:1010500089919991533619F3533729F1533559F141
:10106000BC0188279927E8945C3621F489919991ED
:1010700068945591543639F446EF7EF077FF0DC0F1
:101080008FEF9FEF0AC055374AE039F0583540E1FD
:1010900021F0523642E009F00895FF93EF937DDF8F
:1010A000EF91FF91B7CFFF93EF93FC0181918030D7
:1010B000B9F360DFFBCFFF93EF9368DFF1CFDF93EE
:1010C000CF93CDB7DEB72596A3DFCF91DF910895FB
:1010D0002F923F924F925F926F927F928F929F9248
:1010E000AF92BF92CF92DF92EF92FF920F931F9336
:1010F000CF93DF93CDB7DEB72C970FB6F894DEBF52
:101100000FBECDBFFC018081918123813481232BCF
:1011100031F09F3F31F491E08F3F19F403C091E02B
:1011200001C090E090FF02C00C9403117F0161E0C8
:10113000CF010E94DB159C878B87D70112968C917B
:1011400081110CC0F701C280AB84BC84F0EEAF1AF1
:10115000B1088091A202C11044C06EC080913F01CD
:101160008F3F81F303E111E0C12CD12CBB24B39458
:1011700080913F01082E000C990B8C159D0514F3EE
:10118000D80116968C911697882329F119968D917E
:101190009C911A978B849C848816990639F48091C7
:1011A000A3029091A40288169906A9F0D8011F966F
:1011B000BC921F978B849C841C969C928E921B974A
:1011C00051968C91811103C0C8010E94C61EC801AE
:1011D00006960E94E71E2FEFC21AD20A0A5E1F4F20
:1011E000C7CF8F5F8093A20238E0A316B10428F422
:1011F0008091A1028F5F8093A1028B849C842AE25C
:1012000082162DE5920671F03BE283163DE59306CA
:1012100069F049E284164DE59406F1F480911201DB
:10122000811104C081E080931201B9C710921201AC
:1012300080E00E944A23B3C7882319F0815080932D
:10124000A20258E0A516B10438F48091A1028823C7
:1012500019F081508093A10280911201811109C07F
:101260008B859C8597558F3F910509F008F48AC1BD
:10127000DFC1D0903F0380913E03D82A88E0A816B2
:10128000B10488F42B853C852770332781E090E0FA
:1012900001C0880F2A95EAF7CC2011F0D82A1AC08D
:1012A0008095D82217C0CC2009F431C18B849C844E
:1012B0009092A00280929F020E94451A60939B0226
:1012C00070939C0280939D0290939E0210929A02CA
:1012D00010929902D7018D919C910E943B1D21E0B3
:1012E00030E0190102C0220C331C8A95E2F7032C6E
:1012F000000C440855088091A2022091A10290E0C0
:101300004C01821A910898868F8280909702909063
:1013100098029C828B8280909F029090A0029E8275
:101320008D82712C8C2C912C9A868986E72DF0E089
:10133000EE0FFF1FE050FF4F0081118101151105D5
:1013400009F4FEC0D11005C0D80112968C9181110C
:10135000DCC0F80183819481A581B681822193212B
:10136000A421B521892B8A2B8B2B09F4CEC0938520
:10137000892F877011F487E001C0892FF8E0AF163C
:10138000B10440F4CC2019F081FD09C0BEC082FD3B
:1013900006C0BBC0CC2009F4B8C080FFB6C0D801DD
:1013A0008D909C9094FF11C081E090E08114910495
:1013B00011F080E090E0E1E0F0E0E81BF90B2F8114
:1013C0003885E217F3070CF0A0C04B855C85481503
:1013D000590519F4CC2009F498C08B819C81081719
:1013E000190709F492C0D8015096ED91FC915197DC
:1013F000309721F08081882309F487C06D2DC801C2
:101400000E94BA23882309F480C0EB85FC85E81587
:10141000F90529F429853A853A83298302C01A827D
:10142000198239813170632E81E08114910441F079
:10143000311106C04D815E814815590509F080E0E3
:1014400080FF63C080E00E944A23109398020093BB
:10145000970281E080939602D80118968C91189794
:1014600080933B03611007C0892829F06C9181EBC0
:1014700092E00E94321BF801C184D284C6019A9581
:1014800081159F4110F420EED22299249394C60135
:1014900001978B329D4508F0912CD8011C96ED9157
:1014A000FC911D97309739F01E966D917C911F9796
:1014B00081E0099598229920F9F0F80181859285BB
:1014C0000E94201680933A03C601F8E0AF16B104DB
:1014D00018F40E94F92210C00497813A910530F463
:1014E0006C2D81EB92E00E946B1B08C00E94391C9E
:1014F0008C2D0E94663202C00E94391C89819A811B
:1015000021E0822780FF11C3ABCE73940FCF80916F
:101510009F029091A0028B849C848816990681F486
:101520001092A00210929F0210929B0210929C02B5
:1015300010929D0210929E0210929A0210929902AD
:101540008091970290919802009709F489CE38E033
:10155000A316B10438F46D2D0E94BA23811180CEF8
:1015600081E042C6DC018D919C918B849C8488161D
:10157000990629F4C11037C61092960234C6C110DC
:1015800032C66ECE20913F01022E000C330B28177D
:10159000390714F480933F01D70112962C911297CA
:1015A00036E1389F6001399FD00C112486010D5E11
:1015B0001E4FF801208B12969C918681992371F120
:1015C0008B849C84928681868F5F86830E94511AC9
:1015D000D8011E969C938E931D9780913F0317967A
:1015E0008C93179790913D0380913E03892B189619
:1015F0008C931897ED91FC911197C601875E9E4FD1
:10160000309729F054966D917C91559709958B846C
:101610009C849092A4028092A3020AC0882341F085
:101620008189882329F0C601875E9E4F0E94E71EAC
:10163000F7018281882301F18B859C85825E9C4520
:101640000597D0F46B85625E6093C7038CE090E0F1
:101650000E9476348091F10380FF0EC08091C70311
:101660001F928F9382E791E09F938F930E945F0870
:101670000F900F900F900F908B849C8497FE94C0D6
:10168000D70112968C91882309F48EC0E091D9037A
:10169000F091DA03309729F00190F081E02D09955F
:1016A00001C080E0869581708093A6029091C70367
:1016B000913029F4882319F089E30E9453328091F4
:1016C0003E038093A50210923E038091C7038130B0
:1016D00071F048F08230A1F08430C1F486EE0E94AF
:1016E000533288E111C082EE0E9466320FC088E159
:1016F00093E00E94671688E193E00E944D1606C0B1
:1017000082EE0E94663287E50E945332EFE3FCE9E5
:101710003197F1F700C00000CB84DC84E894D7F85F
:101720005CE0A52EB12CC6010A2C02C096958795C7
:101730000A94E2F78F7051F0082F10E08A3018F405
:10174000035E1F4F05C00650110902C007E210E0FA
:10175000C8010E946716C8010E944D16F4E0AF1A36
:10176000B1082CEFA2162FEFB206E9F68091C7035D
:10177000813039F078F0823069F0843089F488E281
:101780000DC08CE20E9453328091A602882341F062
:1017900089E304C082EE0E94F33102C00E945332FA
:1017A0008091A50280933E038B849C8424EF821653
:1017B0002CE5920679F1A8F449ED84164CE59406DF
:1017C00019F15AED85165CE59506B1F188ED88169C
:1017D0008CE59806D1F506E221EE41EE68ED7CE558
:1017E00030C08B849C8426EF82162CE59206F1F0A3
:1017F000B8F047EF84164CE5940639F507E225EE7C
:1018000046EE67EF7CE51DC007E225EE45EE69ED8B
:101810007CE517C006E221EE40EE64EF7CE511C0E6
:1018200007E225EE44EE65EF7CE50BC006E221EE13
:1018300042EE66EF7CE505C008E221E045EE6AED88
:101840007CE5C7010E948622AAC4D70112969C910A
:10185000992309F4A3C11092A7028B849C8422E0EF
:1018600082162CE5920608F44AC136E183163CE55F
:10187000930638F094012B5F3C452930310508F080
:101880003EC10E94B11B9093D8038093D7038B84F1
:101890009C8420E182162CE5920609F4E6C008F04B
:1018A00050C048E084164CE5940609F4BCC028F505
:1018B00084E088168CE5980609F4A8C080F4A2E0BC
:1018C0008A16ACE59A0609F497C0B3E08B16BCE51E
:1018D0009B0609F003C18091D703826094C08B847A
:1018E0009C8426E082162CE5920609F489C008F053
:1018F00096C08091D703886086C08B849C842CE03E
:1019000082162CE5920609F49DC070F44AE0841614
:101910004CE5940609F48BC008F090C00E94323167
:101920008091D70380686FC08B849C842EE08216E0
:101930002CE5920609F48AC008F093C08091D70381
:101940009FC08B849C842CEF82162CE5920609F4B0
:1019500060C060F543E184164CE5940609F48DC03F
:1019600090F481E188168CE5980609F482C092E132
:1019700089169CE5990609F0B1C00E943231809128
:10198000D7038F7740C08B849C8425E182162CE599
:10199000920609F47CC008F490C04BEF84164CE525
:1019A000940609F09BC08091D80346C08B849C8428
:1019B00081142DE5920609F465C060F44EEF84169B
:1019C0004CE5940609F449C008F444C08091D8035A
:1019D000826032C08B849C8422E082162DE59206C0
:1019E00009F477C008F45FC043E084164DE594061F
:1019F00009F074C060E06EC08091D703816003C0BD
:101A00008091D70380618093D70368C08091D7030A
:101A100011C08091D80382608093D8035FC0809109
:101A2000D7038062F0CF8091D7038064ECCF8091A0
:101A3000D70388608460E7CF8160EECF8091D703C1
:101A40008E7FE1CF8091D7038D7FDDCF8091D7034B
:101A5000877FD9CF8091D80318C08091D8038D7F1C
:101A6000DBCF8091D7038F7ECECF8091D7038F7D40
:101A7000CACF8091D7038F7BC6CF8091D703877F52
:101A80008B7FC1CF8091D8038D7F8E7FC5CF809112
:101A9000D70382FB222720F991E0922790FB82F95D
:101AA00090FB83F9B0CF8091D803982F90959170D7
:101AB0008E7F892B90FB81F9AFCF0E9432318091CC
:101AC000D70387FB222720F991E0922790FB87F923
:101AD0009ACF61E08EE090E00E9476346091D70367
:101AE0008090D803898284E090E00E9476346981F6
:101AF00081E290E00E9476340E94323150C3AB8480
:101B0000BC8426E1A2162CE5B206A1F480913E0326
:101B10008A7A91E009F490E09093A802882341F03A
:101B200065E381EB92E00E946B1B0E94391C37C376
:101B300069E2F7CFAB84BC8421E0A2162CE5B206A3
:101B4000B9F03FEDA3163CE5B30629F1A1144CE52D
:101B5000B40661F50E9432315FEF84E39CE051509E
:101B600080409040E1F700C000000E94FF1917C3B9
:101B70008091F103982F9095917090FB80F980935C
:101B8000F103992319F083EA91E002C081E991E021
:101B90000E94C60704C30E94C21B01C38B849C849D
:101BA00026E182162CE5920609F421C3F70126816D
:101BB00037812115310511F0C90129C0B081BB83DE
:101BC000F7011181992359F08B2F912F0E94C61C88
:101BD0008983682F8B81912F0E94671D05C08B819F
:101BE000912F0E943B1D8983898020E3829EF00112
:101BF00011242CE0129FE00DF11D11248B80E80DC3
:101C0000F11DEE0FFF1FE452F94F859194910E9450
:101C10002F148B839983D7011596DC901597D29456
:101C20003FE0D32212961C91111110923D03809136
:101C30003903877091F0112381F08981807F80348E
:101C400021F08B81805E883040F082E00E94C11DCF
:101C500080913903877001E009F000E0C980C294E7
:101C60002FE0C2228C2D90E08C30910508F05DC2EF
:101C7000FC01EA5AFF4F0C94CA348981807FB981F4
:101C8000BF70B983882329F08B2E829490EF89222C
:101C900089821123D9F09980992009F430C28B816F
:101CA000805E883018F0AB80A11007C090913E0391
:101CB000B980B92AB0923E0306C090913D03898055
:101CC000892A80923D030E94391C19C28B810E948F
:101CD000F3319980992009F428C28B81805E883085
:101CE00018F0AB80A11004C089810E94321C07C08B
:101CF000B980B09490913D03B922B0923D030E9407
:101D0000391C13C28981807F29812F7029838032F9
:101D100029F0822E829480EF882289829B809920EC
:101D200021F0292D213029F12EC01123C9F08091F5
:101D30003F03D11003C0898088290FC09924939450
:101D4000D91009C0A980A82AA982A81609F4EDC152
:101D5000A0923F03EAC1B9808B290E94E931E5C115
:101D6000DD2021F021E0D21609F4DFC10E942C1CF5
:101D70001EC0112329F031E03D1508F4D6C107C07B
:101D8000D110D3C114C0112321F0D110B8C1898161
:101D9000E4CFDD2061F04B81493309F0C3C15FEF2F
:101DA00087EE93E0515080409040E1F7B9C18981BE
:101DB0000E94E231BAC1898186958695837019F0B7
:101DC000813061F0B2C1112321F08B819981937030
:101DD00002C080E090E00E94A41EADC1112321F05A
:101DE0008B819981937002C080E090E00E948E1EEA
:101DF000A2C18B81112319F00E94971902C00E9481
:101E000090180E945D1A97C18981837009F06BC098
:101E100011118FC19B81929596959770990F990F8B
:101E20008B818F70882E912CA12CB12C092E04C08F
:101E3000880C991CAA1CBB1C0A94D2F7AB81A4FF86
:101E400012C04FE050E060E070E004C0440F551F46
:101E5000661F771F9A95D2F7DB01CA01809590958E
:101E6000A095B09503C080E090E0DC01E981E695A3
:101E7000E695E370E983E23019F1C8F4409040033D
:101E8000509041036090420370904303E13059F059
:101E900088299929AA29BB29BC01CD016421752172
:101EA000862197210AC084289528A628B728BC0136
:101EB000CD01682979298A299B290E94FB1D39C1F6
:101EC00088299929AA29BB29809040039090410331
:101ED000A0904203B0904303BC01CD016825792551
:101EE0008A259B25EACF112319F08981817001C0D1
:101EF0008695882309F41DC19B81929596959770CC
:101F0000990F990F8B818F70882E912CA12CB12C59
:101F1000092E04C0880C991CAA1CBB1C0A94D2F779
:101F2000FB81F4FF12C04FE050E060E070E004C0BD
:101F3000440F551F661F771F9A95D2F7DB01CA0120
:101F400080959095A095B09503C080E090E0DC016D
:101F5000298126952695237029832230D9F068F5AA
:101F60004090D3035090D4036090D5037090D60373
:101F7000213059F088299929AA29BB29BC01CD0112
:101F800064217521862197211EC084289528A628C2
:101F9000B72813C088299929AA29BB298090D3037F
:101FA0009090D403A090D503B090D603BC01CD018E
:101FB000682579258A259B2506C0BC01CD016829A5
:101FC00079298A299B290E94921DB3C039813F70CB
:101FD0003983112339F0832F0E94DA1D8B810E94EF
:101FE000E931A7C08B810E94E23189810E949C1D4A
:101FF000A0C04B81423F09F43EC028F4403F51F05D
:10200000413FA1F177C05B81533FE1F1543F09F4B7
:1020100052C070C0112321F1D11087C089818F7106
:10202000898381E090E0A0E0B0E0AC01BD010980CF
:1020300004C0440F551F661F771F0A94D2F7809182
:10204000D3039091D403A091D503B091D6034A0154
:102050005B0188269926AA26BB26C501B40128C0A3
:10206000992493949D1408F460C0D8CF112329F0CB
:1020700089818F7131C01123D9F389818F710E94B9
:102080009C1D53C0112389F029812F71298381E080
:1020900090E0A0E0B0E0BC01CD0104C0660F771F66
:1020A000881F991F2A95D2F703C060E070E0CB012A
:1020B0000E94921D3AC0112391F039813F713983FA
:1020C000832F0E94DA1D898048E0849EC00111247C
:1020D000836080933903882D0E94DA1D26C081E039
:1020E0000E94C11D992493949D14F8F482E00E94EB
:1020F000C11D1BC0112339F0DD2009F4B9CF8B813C
:102100000E94663212C0DD2009F4B7CF2B8129333B
:1021100049F43FEF47EE53E0315040405040E1F783
:1021200000C000008B810E94F33188EF8C0D843059
:1021300010F40E94BA1E0023B1F08091390380FD93
:1021400012C0D70112961C928595859585950E949F
:10215000DA1DC7010E94680880913903859585952D
:1021600085950E949C1D60E0C7012C960FB6F894DF
:10217000DEBF0FBECDBFDF91CF911F910F91FF90BA
:10218000EF90DF90CF90BF90AF909F908F907F9017
:102190006F905F904F903F902F900C94DB15809143
:1021A0003903877081F1D70112968C91882359F1F8
:1021B00082E02C960FB6F894DEBF0FBECDBFDF9144
:1021C000CF911F910F91FF90EF90DF90CF90BF9034
:1021D000AF909F908F907F906F905F904F903F90C7
:1021E0002F900C94C11D80E00E944A2339C8809131
:1021F000A802882311F065E301C069E281EB92E057
:102200000E94321B92CC2C960FB6F894DEBF0FBE04
:10221000CDBFDF91CF911F910F91FF90EF90DF9095
:10222000CF90BF90AF909F908F907F906F905F9076
:102230004F903F902F9008959091D70392FF0DC03B
:10224000282F2871283019F4877F846006C0282F32
:102250002471243011F48B7F886093FF0DC0282FE8
:102260002871283119F4877E846106C0282F2471D3
:10227000243111F48B7E88612091D80320FF0DC09A
:10228000382F3871383019F4877F816006C0382FB5
:102290003171313011F48E7F886021FF0DC0282FFD
:1022A0002871283119F4877E816106C0282F217199
:1022B000213111F48E7E886194FD877E089580918E
:1022C000AD02882351F06091A9027091AA02809119
:1022D000AB029091AC020C94921D0895FC012285F2
:1022E0008081222319F0837090E002C090E0019772
:1022F000FC01EB5CFD4F30811092AD02222399F07E
:102300008091D3039091D403A091D503B091D603CB
:102310008093A9029093AA02A093AB02B093AC025F
:1023200081E08093AD0281E090E0A0E0B0E0BC01EC
:10233000CD0104C0660F771F881F991F3A95D2F709
:102340000C94921DCF93DF93482F50E0FA013597FC
:10235000EF33F10508F063C2EE59FF4F0C94CA3415
:1023600081ED96E00E94C60785E193E00E94C607D2
:1023700083E090E00E9468341F928F9382E193E0A3
:102380009F938F930E945F0880E193E00E94C607AD
:1023900082E090E00E946834C82F8DEF92E00E94A6
:1023A000C6071F92CF9388EF92E09F938F930E946E
:1023B0005F0886EF92E00E94C6078CEE92E00E94D2
:1023C000C6078C2F81701F928F9389EE92E09F93A6
:1023D0008F930E945F0887EE92E00E94C6078DED02
:1023E00092E00E94C607C1FB882780F91F928F9355
:1023F0008AED92E09F938F930E945F0888ED92E0B0
:102400000E94C6078CEC92E00E94C607C2FB882798
:1024100080F91F928F9389EC92E09F938F930E9493
:102420005F0887EC92E00E94C6078EEB92E00E9464
:10243000C607C3FBCC27C0F91F92CF938BEB92E06A
:102440009F938F930E945F0889EB92E00E94C607DA
:102450000E94B11BEC0185EA92E00E94C607DF935F
:10246000CF9380EA92E09F938F930E945F088EE95A
:1024700092E00E94C60785E892E00E94C6078C2F72
:1024800081701F928F9382E892E09F938F930E94B6
:102490005F088DB79EB780960FB6F8949EBF0FBEAB
:1024A0008DBF80E892E00E94C60789E692E00E9414
:1024B000C607C1FB882780F91F928F9386E692E0BA
:1024C0009F938F930E945F0884E692E00E94C60764
:1024D00082E592E00E94C6078D2F81701F928F9334
:1024E0008FE492E09F938F930E945F088DE492E0C7
:1024F0000E94C6078BE392E00E94C607D695D17072
:102500001F92DF9388E392E09F938F930E945F086E
:1025100086E392E00E94C60784E292E00E94C6072A
:10252000C2FB882780F91F928F9381E292E09F93EC
:102530008F930E945F088FE192E00E94C6078DE0B2
:1025400092E00E94C607C3FB882780F91F928F93F1
:102550008AE092E09F938F930E945F0888E092E068
:102560000E94C6078EEF91E00E94C607C4FB882731
:1025700080F91F928F938BEF91E09F938F930E942E
:102580005F0889EF91E00E94C60787EE91E00E9404
:10259000C607C5FB882780F91F928F9384EE91E0D0
:1025A0009F938F930E945F0882EE91E00E94C6077E
:1025B00086EC91E00E94C607C6FB882780F91F922F
:1025C0008F9383EC91E09F938F930E945F088DB768
:1025D0009EB780960FB6F8949EBF0FBE8DBF81EC5C
:1025E00091E00E94C60789EB91E00E94C607C7FBF5
:1025F000CC27C0F91F92CF9386EB91E09F938F93E6
:102600000E945F0884EB91E00E94C6070F900F9034
:102610000F900F9006C080EC96E00E94C6070E94C3
:10262000C21BC1E001C185E293E0EEC08091F103DD
:10263000817F8E7F8093F10389EF9DE00E94C60722
:102640008CEB96E00E94C60781E080932C04E9CFD2
:1026500080EA96E00E94C6070E9432319FEF24E391
:102660008CE0915020408040E1F700C000000E94C3
:10267000FF19D7CF8091F103C82FC095C170C0FB5F
:1026800080F98093F103CC2319F084E996E0B7C078
:1026900087E896E00E94C6078091F103897F877FD3
:1026A0008093F103BECF9091F10391FBCC27C0F949
:1026B00081E0C827892FC0FB81F98093F103CC23E7
:1026C00019F08AE796E027C08CE696E09DC09091CD
:1026D000F10392FBCC27C0F981E0C827892FC0FB0A
:1026E00082F98093F103CC2319F08DE596E013C0B5
:1026F0008DE496E089C09091F10393FBCC27C0F95B
:1027000081E0C827892FC0FB83F98093F103CC2394
:1027100051F081E496E00E94C6078091F103816048
:102720008093F10381C084E396E06EC08DE895E06C
:102730000E94C60784E595E00E94C6078DE395E0F8
:102740000E94C60782E095E00E94C60787ED94E0EC
:102750005BC08FE096E00E94C6070E94BA1E1F92DF
:102760008F9385EF95E09F938F930E945F088091F0
:10277000C8011F928F938EED95E09F938F930E94D7
:102780005F088091FD031F928F938BEC95E09F93E0
:102790008F930E945F088091D70387FB882780F979
:1027A0001F928F9383EB95E09F938F930E945F0816
:1027B0000E94451A9F938F937F936F938CE995E0C6
:1027C0009F938F930E945F088DB79EB746960FB672
:1027D000F8949EBF0FBE8DBF24CF0E9432319091DE
:1027E000D70397FBCC27C0F981E0C827892FC0FB0E
:1027F00087F98093D703CC2329F08AE296E00E94E0
:10280000C60712C08FE196E00E94C6070ACF89531F
:1028100003C08D5101C080E00E94DA2302CF8DE118
:1028200096E00E94C607C0E08C2FDF91CF910895FB
:10283000F894E82FE295EF70F0E031A1282F2F7087
:1028400081E090E001C0880F2A95EAF7982F9095D3
:10285000932391A392A1892B82A378940895CF9377
:10286000DF938238910569F1B0F48133910509F461
:102870006FC048F48932910509F465C08A32910528
:1028800009F46BC08AC08533910509F457C08933B8
:102890009105B9F082C0833E910571F138F4803E14
:1028A0009105B1F0823E910511F177C0863E910508
:1028B000B9F1873E9105C9F1843E910509F06DC0DB
:1028C00024C02091D70320FD53C021FD51C065C015
:1028D0008091D70380FD46C08091D80380FF48C017
:1028E0008091D70384FD50C183EE90E04FC1809169
:1028F000D70382FF3AC0F4CF8091D70382FD35C061
:102900008091D80380FD34C0EBCF8091D80381FF44
:1029100035C08091D70384FD37C187EE90E036C182
:102920008091D70383FF27C0F4CF8091D70383FD25
:1029300022C08091D80381FD21C0EBCF8091D703C5
:1029400085FD1FC021C08091D70385FD1DC019C022
:102950008091D70386FD1BC01DC08091D70386FDE3
:1029600019C015C089E390E011C182EE90E00EC15C
:1029700080EE90E00BC186EE90E008C184EE90E01E
:1029800005C189E290E002C185E390E0FFC08AE2E0
:1029900090E0FCC081E390E0F9C0811531E5930738
:1029A00008F069C0811540E59407F0F09C0174E0DF
:1029B000369527957A95E1F7922F9370482F4370BB
:1029C00021E030E002C0220F331F4A95E2F73C6855
:1029D000392B982F9F709695969540E2949FC00151
:1029E0001124822B932BD2C0883E910568F5803E3E
:1029F000910508F0CBC0883A9105B8F4853A910565
:102A000048F0855AE82FF0E0EE59FD4F808190E0C4
:102A10009064BCC08130910509F4B3C008F4B4C01F
:102A20008430910508F4B0C0B1C08F3B910508F027
:102A3000ABC0885AE82FF0E0EE0FFF1FEB59FD4FB7
:102A4000808191819464A2C0811520E2920758F49C
:102A5000811531E0930708F099C0803F910508F493
:102A600093C0906593C0811540E4940708F48CC02E
:102A70009F70906A8BC0811525E5920708F042C0CF
:102A8000811534E5930728F0982F8827846F906A82
:102A90007DC0811543E59407B0F09C012370332776
:102AA00041E050E002C0440F551F2A95E2F7282F5D
:102AB0002695269580E2289F90011124CA01822B39
:102AC000932B9A6863C0811522E5920728F4982F0A
:102AD0008827816F906A5AC09C012370332741E098
:102AE00050E002C0440F551F2A95E2F7282F269583
:102AF000269580E2289F90011124CA01822B932BF6
:102B00009C6844C0EC01811539E59307A8F4811550
:102B1000984528F09C2F8827806F906A37C0C11590
:102B200086E5D80788F58C2F0E941C118F7190E0E4
:102B3000982F882790622AC081152AE5920790F481
:102B40008C2F8F700E941C1194E0D695C7959A9592
:102B5000E1F7CF70D0E0DC2FCC27D0699E01282B85
:102B6000C90114C090568115904270F48D2F8F7159
:102B70000E941C11282F2F71CE0199279062922B51
:102B800005C081E090E002C080E090E0DF91CF914D
:102B900008958295982F937344E0949F9001112497
:102BA0008C7C86958695282B822F8575880F2A7AAE
:102BB0002695822B08951F93CF93DF9300D000D0EA
:102BC0001F92CDB7DEB7FC0186819781009779F51A
:102BD000CF0125E0DE01119601900D922A95E1F7D3
:102BE000FC01228189819A81222359F0662349F0D0
:102BF0000E94C61C182F682F89819A810E94671D28
:102C000003C00E943B1D182F8A8190E3199FF00199
:102C100011249CE0899FE00DF11D11248981E80FAA
:102C2000F11DEE0FFF1FE452F94F859194910F9023
:102C30000F900F900F900F90DF91CF911F910895FB
:102C40009C013A9521153F4130F5BC016627727011
:102C5000AC01442754709C012227387094FF0FC0A8
:102C600090FF02C080E101C080E0672B09F0806224
:102C7000452B09F08064232B79F080680895892F13
:102C80008170672B09F08260452B09F08460232B4B
:102C900019F08860089580E00895CF93DF93EC01E8
:102CA0000E94F331CE01805E9109089710F02097C1
:102CB00039F4CE010E942016DF91CF910C94E231BD
:102CC000CE010E942016DF91CF910C94CD31CF938D
:102CD000DF93EC01805E9109089710F0209731F4A2
:102CE000CE010E9420160E94E93105C0CE010E944B
:102CF00020160E94D8318C2FDF91CF910C94663230
:102D00008F929F92AF92BF92CF92DF92EF92FF92FB
:102D10000F931F93CF93DF939BECE92E93E0F92E53
:102D200029E3C22E22E0D22EC0E0D0E010E0AA2497
:102D3000A394B12CB601D6018C91F894E82FE295BA
:102D4000EF70F0E021A18F70A50102C0440F551F64
:102D50008A95E2F7CA01922F982B91A392A18095B0
:102D6000892382A3789400C0EDE3F2E020E030E014
:102D7000812C912C4191842F82958F7090E0DC0101
:102D800090968C9190E04F7002C0959587954A95EA
:102D9000E2F780FD08C0C501022E02C0880F991F0E
:102DA0000A94E2F702C080E090E0882A992A2F5F17
:102DB0003F4F2C303105F1F6BFEFCB1ADB0AFB0198
:102DC00080810E941814C330D10519F0F0EAFA95F9
:102DD000F1F7D7018D919C9111978816990621F0F2
:102DE0008D929C9281E001C080E0182B2196B2E088
:102DF000EB0EF11CC430D10509F09CCF112349F032
:102E000081E08093B0020E94511A9093AF028093A8
:102E1000AE028091B002882351F18091AE02909170
:102E2000AF020E94361A069710F18091CB03909161
:102E3000CC039093DD038093DC038091CD039091CC
:102E4000CE039093DF038093DE038091CF039091B4
:102E5000D0039093E1038093E0038091D10390919C
:102E6000D2039093E3038093E2031092B002809127
:102E7000990290919A02892B09F43EC040914D032A
:102E800050914E0360914F03709150032FB7F89407
:102E90008091440390914503A0914603B09147036C
:102EA0002FBF841B950BA60BB70B40914903509184
:102EB0004A0360914B0370914C0384179507A60752
:102EC000B707D0F08091990290919A020E946716FC
:102ED00010929A021092990210924D0310924E0392
:102EE00010924F03109250031092490310924A031C
:102EF00010924B0310924C0380913F018F3F41F1A0
:102F0000D12C06E11BC00E9DF0010F9DF00D112488
:102F1000ED5EFE4FA288B388A114B10421F484E0D1
:102F2000A82EBB24B3940E9DE0010F9DD00D11245B
:102F3000CD5EDE4F8E81811110C0D394ED2CF12C2B
:102F400080913F01082E000C990B8E159F05DCF631
:102F500080914401811118C03FC08D859E850E94DB
:102F6000361AA816B90648F78989811103C0CE011F
:102F70000E94C61E0E9DC0010F9D900D1124875EFC
:102F80009E4F0E94E71ED9CF8091C4039091C50344
:102F9000009711F10E94361A20915F03309160036F
:102FA00028173907C8F4909162038091610398173C
:102FB00059F00E949C1F1092600310925F031092C0
:102FC000C5031092C40308C00E94321F1092C503AB
:102FD0001092C4030E948B1F812FDF91CF911F910C
:102FE0000F91FF90EF90DF90CF90BF90AF909F90A8
:102FF0008F9008958091FE03089522E02093E900C8
:103000002FEF3091E800215035FD06C035ED3A959F
:10301000F1F700002111F5CF2091E80025FF0BC04A
:1030200040E050E066E070E00E94A2298091E80054
:103030008E778093E8000895CF93DF932091C801A5
:10304000222339F02091D70327FF03C060E222E05A
:1030500002C068E021E02093E9002FEF3091E80002
:10306000215035FD06C035ED3A95F1F700002111EC
:10307000F5CF2091E80025FF1DC0EC018091C8012B
:10308000811105C040E050E068E070E003C070E0EE
:1030900040E050E0CE010E94A2298091E8008E77A6
:1030A0008093E80080E2FE01AFEFB3E001900D9263
:1030B0008A95E1F7DF91CF910895CF93DF9300D008
:1030C0001F92CDB7DEB790912104943019F5898312
:1030D0007B836A8382E08093E9008FEF9091E80020
:1030E000815095FD06C095ED9A95F1F7000081118C
:1030F000F5CF8091E80085FF0DC040E050E063E02F
:1031000070E0CE0101960E94A2298091E8008E779E
:103110008093E8000F900F900F90DF91CF9108956A
:10312000803F39F48091ED0387FF6AC01092ED0370
:1031300067C0813F29F48091ED031816BCF360C08D
:103140009091EC03823F29F497FF5AC01092EC0350
:1031500057C0833F19F41916CCF352C09091EE0377
:10316000893F31F419160CF04BC01092EE0348C0A1
:103170008A3F19F497FF44C0F8CF8B3F39F4809110
:10318000EF0387FF3DC01092EF033AC08C3F29F454
:103190008091EF031816BCF333C0843F21F4809173
:1031A000EB038E7F17C0853F21F48091EB038D7F69
:1031B00011C0863F21F48091EB038B7F0BC0873FCA
:1031C00021F48091EB03877F05C0883F31F4809123
:1031D000EB038F7E8093EB0313C08D3F21F480912E
:1031E00048038E7F0BC08E3F21F4809148038D7F72
:1031F00005C08F3F29F4809148038B7F809348035B
:103200008091EC03811106C08091ED03811102C011
:103210001092E7038091EE03811106C08091EF03C5
:10322000811102C01092E40308958091480380FF49
:1032300008C06091430170E0759567957595679535
:1032400021C081FF06C06091430170E075956795CC
:1032500019C082FF04C06091430170E010C09091DA
:10326000E403992399F0609142019617A0F78091A9
:103270004301899FC001112470E00E94B634603878
:10328000710540F46115710519F406C061E070E044
:10329000862F08958FE7089581E00895809148036F
:1032A00080FF0BC06091410185E0689FB00111244F
:1032B00075956795759567952BC081FF09C06091DD
:1032C000410185E0689FB00111247595679520C084
:1032D00082FF07C06091410185E0689FB001112421
:1032E00017C09091E7039923D1F0609140019617A0
:1032F00088F72091410185E0289F90011124929F39
:10330000A001939F500D112470E0CA010E94B634B1
:103310006038710540F46115710519F406C065E067
:1033200070E0862F08958FE7089581E00895803F2B
:1033300021F40E944E19819504C0813F29F40E9416
:103340004E198093ED030895823F21F40E944E1997
:10335000819504C0833F29F40E944E198093EC03A9
:103360000895893F19F40E94151905C08A3F31F468
:103370000E94151981958093EE0308958B3F21F4E7
:103380000E941519819504C08C3F29F40E941519DB
:103390008093EF030895843F21F48091EB038160D3
:1033A00017C0853F21F48091EB03826011C0863FF6
:1033B00021F48091EB0384600BC0873F21F480915E
:1033C000EB03886005C0883F31F48091EB03806196
:1033D0008093EB0308958D3F21F480914803816031
:1033E0000BC08E3F21F480914803826005C08F3F5F
:1033F00029F480914803846080934803089587E707
:1034000097E790930108809300089AE088E10FB64F
:10341000F894A895809360000FBE90936000FFCF52
:1034200078941F920F920FB60F9211248F939F934F
:10343000AF93BF938091440390914503A0914603BD
:10344000B09147030196A11DB11D80934403909351
:103450004503A0934603B0934703BF91AF919F915B
:103460008F910F900FBE0F901F9018959C014FB732
:10347000F8948091440390914503A0914603B09144
:1034800047034FBF821B930B08952FB7F8946091A9
:1034900044037091450380914603909147032FBFE9
:1034A00008952FB7F8948091440390914503A0911B
:1034B0004603B09147032FBF08958091F10383FF26
:1034C0007EC089ED98E00E94C6078091EB031F92B1
:1034D0008F9384ED98E09F938F930E945F0882ED15
:1034E00098E00E94C6078091EC03282F082E000C5C
:1034F000330B3F938F938FEC98E09F938F930E94B1
:103500005F088DEC98E00E94C6078091ED03282F9C
:10351000082E000C330B3F938F938AEC98E09F9317
:103520008F930E945F0888EC98E00E94C607809104
:10353000EE03282F082E000C330B3F938F9385EC5E
:1035400098E09F938F930E945F0883EC98E00E941D
:10355000C6078091EF03282F082E000C330B3F93F2
:103560008F9380EC98E09F938F930E945F088DEB80
:1035700098E00E94C6078091E7031F928F938AEB21
:1035800098E09F938F930E945F0888EB98E00E94D9
:10359000C607809148031F928F9385EB98E09F9315
:1035A0008F930E945F0882EB98E00E94C6078DB758
:1035B0009EB74C960FB6F8949EBF0FBE8DBF0E946B
:1035C000511A2091EC03211104C02091ED03222314
:1035D00021F09093E9038093E8032091EE032111F9
:1035E00004C02091EF03222321F09093E6038093FF
:1035F000E503E091D903F091DA03309749F082E0D6
:103600008093EA030480F581E02D8AEE93E009942B
:1036100008951F920F920FB60F9211248F939F93CC
:10362000AF93BF938091DB03811113C0809144035A
:1036300090914503A0914603B09147034196A11D87
:10364000B11D8093440390934503A0934603B09328
:103650004703BF91AF919F918F910F900FBE0F9035
:103660001F9018952091C801222351F12091D70372
:1036700027FF26C0262F2695269526952E3178F4ED
:10368000FC01E20FF11D677081E090E001C0880F3E
:103690006A95EAF7809592818923828308958091C3
:1036A000F10380FF17C01F926F9384E998E09F9306
:1036B0008F930E945F080F900F900F900F900895C6
:1036C000FC0106962281621301C012823196E8172E
:1036D000F907C1F708952091C801222349F12091EB
:1036E000D70327FF25C0262F2695269526952E3110
:1036F00070F4FC01E20FF11D677081E090E001C001
:10370000880F6A95EAF79281892B828308958091C8
:10371000F10380FF25C01F926F9386E798E09F9387
:103720008F930E945F080F900F900F900F90089555
:10373000FC0132962FEF30E04191641789F02F3F62
:1037400019F4411101C0232F3F5F3630A9F72F3FF5
:1037500039F0FC01E20FF11D27FDFA95628308950F
:103760000895CF9384E090E00E946834C82F81E2EE
:1037700090E00E9468342C2F30E0A901582BCA0138
:10378000CF9108956CEE7EEF80E090E00E9494343B
:1037900060E082E090E00E94763460E083E090E0B8
:1037A0000E9476341092400310924103109242031B
:1037B0001092430360E084E090E00E94763460E081
:1037C00081E290E00E94763460E085E090E00E9423
:1037D000763460E086E090E00E9476346FEF87E018
:1037E00090E00E94763440E050E0BA0188E090E03A
:1037F0000E94883460E08DE090E00E94763440E0E2
:1038000050E0BA0188E190E00E94883460E087E1EE
:1038100090E00E94763440E050E0BA018CE190E004
:103820000E94883460E080E290E00E94763440E0BC
:1038300050E0BA0188E190E00E94883440E050E016
:10384000BA018FE090E00E94883440E050E0BA0175
:1038500083E190E00C94883480913F0381111092B1
:103860003F030895809590913E03892380933E0302
:103870000895EF92FF920F931F93CF9390913E0381
:1038800080913D03892B20913C03982F922B90939C
:10389000B10280913F038823D9F0892B8093B10234
:1038A0008091C801882331F08091D70387FF02C03F
:1038B0008EE101C086E0E3EBF2E090E0815028F079
:1038C00021912223D9F39F5FF9CF91110E942C1CE3
:1038D00080913B0380959091B102892390913A03A6
:1038E000892B8093B102E091D903F091DA033097EC
:1038F00009F446C09091C801992349F09091D703EB
:1039000097FF05C08093B20285E08093B1020280E8
:10391000F381E02D81EB92E009958091F10382FF24
:103920002FC080FF04C084E698E00E94C60701EB28
:1039300012E0C8E08EE5E82E88E0F82E8091F103D1
:1039400080FF0CC0F80180811F928F93FF92EF924D
:103950000E945F080F900F900F900F90C1500F5F63
:103960001F4FC111EBCF8091F10380FF09C08CE59F
:1039700098E0CF911F910F91FF90EF900C94C607A4
:10398000CF911F910F91FF90EF9008958F929F928A
:10399000AF92BF92DF92EF92FF920F931F93CF935C
:1039A000DF938090D3039090D403A090D503B09080
:1039B000D6034091400350914103609142037091BE
:1039C0004303842A952AA62AB72ACFE1D0E02CE027
:1039D000929F7001112490E3D92E082F10E0D50199
:1039E000C4010C2E04C0B695A795979587950A94A7
:1039F000D2F780FD04C0219790F780E014C0DC9ED0
:103A0000F001DD9EF00D1124EE0DFF1DE00FF11F02
:103A1000EE0FFF1FE452F94F859194910E942F14ED
:103A2000019749F38C2FDF91CF911F910F91FF9058
:103A3000EF90DF90BF90AF909F908F900895CF93BD
:103A4000DF93EC010E94C61C20E3829FC001112479
:103A5000FC012CE0D29FE00DF11D1124EC0FF11DB3
:103A6000EE0FFF1FE452F94F859194910E942F149D
:103A7000DF91CF9108952CE0929F800D1124682F43
:103A8000669566956695982F977085E0689FB0015A
:103A9000112440E050E080E0FB01E40FF51FE55EFB
:103AA000FC4F208130E0092E02C0369527950A94FC
:103AB000E2F721703327042E01C0220F0A94EAF79F
:103AC000822B4F5F5F4F4530510531F708952CE051
:103AD000929F800D1124E82FE695E695E695877074
:103AE00051E001C0550F8A95EAF785E0E89FF001A3
:103AF0001124E55EFC4F20E030E070E04081CB0116
:103B0000022E02C0969587950A94E2F781708195FE
:103B100084278523842781932F5F3F4F25303105EC
:103B200069F708956093D3037093D4038093D5030A
:103B30009093D6030C9415310F931F9341E050E0FE
:103B400060E070E004C0440F551F661F771F8A9520
:103B5000D2F740955095609570958091D3039091E0
:103B6000D403A091D503B091D6038A019B01082309
:103B700019232A233B23C901B8011F910F910C94EB
:103B8000921D209139038095822380933903982FC9
:103B9000977079F430E0482F082E000C550B24174D
:103BA000350739F08595859585950E949C1D109265
:103BB000390308950F931F9341E050E060E070E0F7
:103BC00004C0440F551F661F771F8A95D2F7809156
:103BD000D3039091D403A091D503B091D6038A0169
:103BE0009B01082B192B2A2B3B2BC901B8011F91D4
:103BF0000F910C94921D6093400370934103809346
:103C00004203909343030C94153120911A03909131
:103C1000D9022917B1F030E0F90153E0EE0FFF1F90
:103C20005A95E1F7E652FD4F5181561306C0508177
:103C3000581303C05281541306C02F5F3F4F2770A3
:103C4000E8CF80E0089581E0089580911A03909173
:103C5000D902891719F08F5F8770FBCF0895BC01D7
:103C60004091620380916103942F981729F1292FC5
:103C700030E0F901EE0FFF1FE95AFC4F0190F0818F
:103C8000E02DE617F70799F487E0869FF001879FFC
:103C9000F00D1124EB5BFE4F81E0848394130CC084
:103CA0002F5F3F4F237033272093620308952F5FC8
:103CB0003F4F922F9370D9CF0895FC0180818130BE
:103CC00021F4FB018081918105C0823029F4FB0140
:103CD000828193810C944D160895FC01808181307E
:103CE00021F4FB018081918105C0823029F4FB0120
:103CF000828193810C9467160895CF93DF93FC0122
:103D00002081223041F4FB01EC01828193810E94E9
:103D1000671681E08B87DF91CF910895209155033D
:103D2000309156032817390771F09093560380930A
:103D30005503E091D903F091DA03309721F0008424
:103D4000F185E02D09940895209153033091540397
:103D50002817390771F09093540380935303E0912F
:103D6000D903F091DA03309721F00680F781E02D36
:103D700009940895E091D903F091DA03309721F086
:103D80000190F081E02D099480E00895CF93DF93B6
:103D9000EC0181E0898B90913E038F81892B809388
:103DA0003E0390913D038885892B80933D030E94BB
:103DB000391CEA81FB81CE010696309729F06C8987
:103DC0007D89DF91CF910994DF91CF910895EF9292
:103DD000FF920F931F93CF93DF93FC012285211154
:103DE0003AC0EC01E380F480F7E5FF1A26E12E9D4E
:103DF000C0012F9D900D1124DC01AD5EBE4F1496C5
:103E0000ED91FC911597875E9E4F309729F054965F
:103E10006D917C915597099586E18E9D80018F9DCE
:103E2000100D11240D5E1E4FF80187810E94321C77
:103E3000F8018085809590913D03892380933D030F
:103E40000E94391C188219861B861E821D821092C0
:103E5000A4021092A302DF91CF911F910F91FF90C6
:103E6000EF9008950F931F93CF93DF938091C30337
:103E7000882309F44BC0C0E0DCE08091C303C8177D
:103E800008F042C00C2F10E0D09FF001D19FF00D40
:103E90001124ED59FC4F9081818123813481232BA2
:103EA00031F08F3F31F481E09F3F19F403C081E08E
:103EB00001C080E080FD26C0D09FD001D19FB00D11
:103EC0001124AD59BC4F16968D919C911797892B53
:103ED00031F418968D919C911997019651F4208197
:103EE00031814281538164817581868197810E94ED
:103EF0004731D09FF001D19FF00D1124ED59FC4FB7
:103F000014821382CF5FB9CF1092C303DF91CF9198
:103F10001F910F9108951092600310925F03E5E4E2
:103F2000F1E08581811102C014821682379681E00A
:103F3000EC3BF807B1F708952F923F924F925F92B2
:103F40006F927F928F929F92AF92BF92CF92DF92A9
:103F5000EF92FF920F931F93CF93DF93C091620371
:103F6000E7E0FE2E01E010E0FCE02F2EAEEFEA2E9F
:103F700080916103C81709F479C0D0E0FE01EE0F0B
:103F8000FF1FE95AFC4F80819181F89EF001F99E54
:103F9000F00D1124EB5BFE4F2481211164C0609071
:103FA000C303A3E6B3E020E030E0712C5F012615E7
:103FB00008F057C01A964D905C901B97F5018080D1
:103FC00091804FEF5FEF312CC32CD12CF601EE0F17
:103FD000FF1FE80DF91D659174914616570609F407
:103FE000A601672B11F03394EFCF4F3FFFEF5F0730
:103FF000A1F1B80102C0660F771F4A95E2F7762A51
:10400000A80102C0440F551F3A94E2F741505109EC
:10401000672D70E046175707E1F4229EF001239EBA
:10402000F00D1124ED59FC4FF89ED001F99EB00D12
:104030001124AB5BBE4F12962D913C9113973783A1
:104040002683E082E1829187808771E015967C93D8
:1040500008C014961C921E9213972F5F3F4F1C9618
:10406000A6CF0E942F1E2196C37082CF0E94321FBE
:10407000DF91CF911F910F91FF90EF90DF90CF9044
:10408000BF90AF909F908F907F906F905F904F9078
:104090003F902F900C948B1F2F923F924F925F92E4
:1040A0006F927F928F929F92AF92BF92CF92DF9248
:1040B000EF92FF920F931F93CF93DF93CDB7DEB7AD
:1040C0006A970FB6F894DEBF0FBECDBF498B5A8BEF
:1040D0006B8B7C8B8D8B9E01275F3F4F88E0F901B6
:1040E00011928A95E9F785E0FE017196D901019058
:1040F0000D928A95E1F789859A854C855D85452BDA
:1041000031F09F3F31F491E08F3F19F403C091E00B
:1041100001C090E090FDD7C161E0C9010E94DB15AC
:10412000883FFCE59F0739F48B85882319F181E0EE
:1041300080934401C8C1893F2CE5920781F48B85A7
:104140008823C1F01092C5031092C4031092440159
:1041500080916103809362030E94321FB4C18A3F41
:104160009C4541F48B85882329F080914401882364
:10417000F1F2E8CF80914401882309F4A4C18A8533
:10418000E985F0E06CE0869FE00DF11D1124EE0F53
:10419000FF1FE452F94F6590749005E411E0E12CA3
:1041A000C12CD12C44244394AA24A394B12CCE0135
:1041B00001969F8B8E8BF8014081518188248A94CF
:1041C000982C60E0262F30E0F901EE0FFF1FE40F7E
:1041D000F51F859194916816790609F44901892B98
:1041E00011F06F5FEFCFFFEF8F169F0609F403C149
:1041F000F8012481F22EF4245B8495818681552078
:1042000009F49FC021119DC0911113C0950101C0F7
:10421000220F8A94EAF7822B868380915F03909124
:104220006003C29730F482E390E090936003809340
:104230005F03950102C0220F331F6A95E2F72150F8
:104240003109F801868190E02817390709F0DDC0AF
:104250008091C4039091C503009739F00E94361AEB
:10426000C39718F0F8014482D1C080916203209175
:104270006103298F982FE0E0F0E0698D861709F43B
:104280004CC0282F30E0F901EE0FFF1FE95AFC4F18
:104290004081518167E0649FD001659FB00D11247A
:1042A000AB5BBE4F3C9011962C901197188E60E03E
:1042B00070E0E32DF22DE70FF11DE70FF11D859062
:1042C000949081149104D1F0F801F081FA8FF801F3
:1042D000518060E0EA8DF52DE60FF11DE60FF11D2E
:1042E000459154914115510539F08416950611F404
:1042F00041E0488F6F5FEECF7F5FDBCF488D442377
:1043000029F0671708F479C0FD0178C0E0E0F0E01B
:104310002F5F3F4F822F8370B0CF90936203E017DF
:10432000F10709F472C090E0FC01EE0FFF1FE95A9B
:10433000FC4FD182C08201968370992780936103DC
:1043400064C0911113C0A50102C0440F551F6A95A6
:10435000E2F74150510990E04817590709F03FC072
:104360002223F1F1C6010E942F1E39C090E09C016A
:104370002150310928233923082C02C095958795AF
:104380000A94E2F7232B39F580FF25C0F8018281DA
:104390009381892BD9F088E0EE89FF8911928A9563
:1043A000E9F78EEF89838A830E94511A8160582F22
:1043B0009D838C83F801828193818F8398872981E3
:1043C0003A814B816D817E810E944731F8011582CF
:1043D000FF24F39405C0F82FF170FF2E01C0F12CDB
:1043E000C50101C0880F8A94EAF78095F80196818B
:1043F000892386830AC0512C09C0F8014482E01742
:10440000F10709F055C0909362035F2CE528FFEF98
:10441000CF1ADF0A095F1F4F21E1C216D10409F04C
:10442000CACE8B85882381F1EE2071F10E94511A4A
:104430009093C5038093C4038091C303883008F030
:104440004CC091E0980F9093C30398E0FE01399619
:10445000DE01119601900D929A95E1F74CE0849F50
:10446000C00111248D599C4F28E0FE013196DC01DA
:1044700001900D922A95E1F72FEF3FEFFC01318774
:1044800020877386628629C09091620380916103C0
:10449000981719F00E949C1F08C00E94321F1092AA
:1044A000C5031092C4030E948B1FE11016C00BC0FD
:1044B00098132ECFEA17FB0709F02ACFC9010196FE
:1044C000982F937025CF29853A854B855C856D851E
:1044D0007E858F8598890E9447316A960FB6F89439
:1044E000DEBF0FBECDBFDF91CF911F910F91FF9027
:1044F000EF90DF90CF90BF90AF909F908F907F9084
:104500006F905F904F903F902F9008950F931F935F
:10451000CF93DF93C42FD22FFC0182818823C9F06F
:104520004093A7020E94511A909352038093510323
:1045300080E28C0F883008F057C0C77081E001C05E
:10454000880FCA95EAF7DF91CF911F910F910C94D4
:10455000E9318091A702481330C0809151039091B6
:1045600052030E94361A8430914038F510E21D0F34
:10457000CD17B9F080E28C0F883040F4C77081E02D
:1045800001C0880FCA95EAF70E94E231183028F579
:1045900081E09D2F977001C0880F9A95EAF70E94DD
:1045A000E931802F0E9453321830F0F4D77081E047
:1045B00001C0880FDA95EAF70AC080E28C0F8830D4
:1045C00098F4C77081E001C0880FCA95EAF7DF91BF
:1045D000CF911F910F910C94E231802FDF91CF91F9
:1045E0001F910F910C945332DF91CF911F910F9136
:1045F0000895CF93DF93EC0140919B0250919C0270
:1046000060919D0270919E022FB7F89480914403AF
:1046100090914503A0914603B09147032FBF841B9F
:10462000950BA60BB70B843F9140A105B105A8F4EB
:1046300080919B0290919C02A0919D02B0919E025C
:1046400080934D0390934E03A0934F03B093500378
:1046500084EF91E0A0E0B0E00EC00E94451A6093A4
:104660004D0370934E0380934F039093500382E366
:1046700090E0A0E0B0E08093490390934A03A093B8
:104680004B03B0934C03D0939A02C0939902DF91ED
:10469000CF910895FF920F931F93CF93DF930091D3
:1046A0009702109198020115110509F45CC010924F
:1046B0009A021092990210923B0310923A03D80189
:1046C00019966D917C911A979B013A9521153F415E
:1046D00008F4707EC62FD1E0611101C0D0E0F82E41
:1046E000D8011C96ED91FC911D97309739F01E96DC
:1046F0006D917C911F9780E00995D823DD2379F097
:104700008CEF8C0F813A30F46C2F81EB92E00E9499
:10471000321B05C00E94391C8C2F0E94F331E0919E
:104720009702F091980240815181FF2071F08385BA
:1047300085FD0BC080919602882339F091E09A01A3
:10474000215031092B323D4508F090E090FF03C025
:10475000CA010E94F9220E94391C109298021092FC
:10476000970210929602C801DF91CF911F910F918D
:10477000FF900895FC0187818623C1F492819923DB
:10478000B9F08385692383FF04C081E0611111C002
:104790000DC0892F8F7092959F70982B862F8F70E8
:1047A00062956F70682B81E0961719F080E008958C
:1047B00081E00895CF93C82F1F928F9383EB9BE0E6
:1047C0009F938F930E945F0881E090E0A0E0B0E0AB
:1047D000BC01CD0104C0660F771F881F991FCA95C1
:1047E000D2F70E94FB1D0F900F900F900F90CF916A
:1047F0000C94323188EB9AE00E94C6071F9281E048
:104800008F931F9285E08F938AE69AE09F938F9310
:104810000E945F080F900F900F900F900F900F90D5
:104820000895833081F128F4813059F08230D1F03D
:104830000895853009F449C0B8F1863009F456C0AE
:1048400008958091BC01681720F4861B8093BC01F9
:1048500002C01092BC018091BC011F928F938BE526
:104860009AE054C08091BD01681720F4861B8093A4
:10487000BD0102C01092BD018091BD011F928F93B6
:1048800089E49AE043C080914101681720F4861BB7
:104890008093410102C010924101809141011F9219
:1048A0008F9386E39AE032C080914001681720F42C
:1048B000861B8093400102C010924001809140010C
:1048C0001F928F9381E29AE021C080914301681783
:1048D00020F4861B8093430102C010924301809113
:1048E00043011F928F9388E09AE010C080914201AB
:1048F000681720F4861B8093420102C01092420187
:10490000809142011F928F938DEE99E09F938F9338
:104910000E945F080F900F900F900F9008958330C2
:10492000E9F128F4813061F0823009F10895853091
:1049300009F462C008F449C0863009F474C00895CF
:104940008091BC01262F30E0280F311D2F3F31050B
:1049500024F4680F6093BC0103C08FEF8093BC0107
:104960008091BC011F928F938EED99E072C080916F
:10497000BD01262F30E0280F311D2F3F310524F4D3
:10498000680F6093BD0103C08FEF8093BD018091DC
:10499000BD011F928F938CEC99E05BC08091410127
:1049A000262F30E0280F311D2F3F310524F4680FEA
:1049B0006093410103C08FEF8093410180914101D9
:1049C0001F928F9389EB99E044C080914001262F7C
:1049D00030E0280F311D2F3F310524F4680F60931C
:1049E000400103C08FEF80934001809140011F92EE
:1049F0008F9384EA99E02DC080914301262F30E007
:104A0000280F311D2F3F310524F4680F60934301B7
:104A100003C08FEF80934301809143011F928F93D6
:104A20008BE899E016C080914201262F30E0280FD4
:104A3000311D2F3F310524F4680F6093420103C0FC
:104A40008FEF80934201809142011F928F9380E704
:104A500099E09F938F930E945F080F900F900F90A3
:104A60000F9008959FB7F8941092FA039FBF90910A
:104A70002104943009F057C09091E9009F70309163
:104A8000EC00232F217030FD20E8922B23E02093AF
:104A9000E9002091EB0020FF43C02091EE0027FFAA
:104AA0003FC02091C603222321F02091E80025FF7A
:104AB00037C01092C60326E03091E80035FD15C0DE
:104AC00030912104343061F53091EB0035FD28C080
:104AD000215021F481E08093C60322C0EFE9FFE07A
:104AE0003197F1F700C00000E7CF8093F10080918B
:104AF000E80085FD0AC08091E80080FFFCCF80912E
:104B0000E8008E778093E80006C08FB7F89421E024
:104B10002093FA038FBF9F709093E90080E008957F
:104B20009F709093E9008FEF0895BC0184E00C948E
:104B30005D18BC0183E00C945D182091E400309175
:104B4000E50095E64091EC00842F817040FF23C082
:104B50008091E80080FD1DC080912104882399F098
:104B6000853099F08091EB0085FD11C04091E40003
:104B70005091E5002417350729F3915011F09A015F
:104B8000E1CF84E0089582E0089583E0089581E014
:104B9000089580E008954091E80042FFDDCF089538
:104BA0008091230487FF11C08091E80082FD05C039
:104BB000809121048111F8CF11C08091E8008B779A
:104BC0000BC080912104882349F08091E80080FF88
:104BD000F8CF8091E8008E778093E8000895982FB1
:104BE000973068F59093E900981739F07091EC00D0
:104BF0002091ED005091F00003C0242F762F50E05B
:104C000021FD02C09F5FECCF3091EB003E7F3093DF
:104C1000EB003091ED003D7F3093ED003091EB00E3
:104C200031603093EB007093EC002093ED005093D3
:104C3000F0002091EE0027FDE5CF80E008958F7011
:104C40008093E90081E008952091290430912A049D
:104C50002617370748F06115710539F42091E800EF
:104C60002E772093E80001C0B901FC0120E0611516
:104C7000710579F1809121048823F1F18530F1F1FA
:104C80008091E80083FD3CC08091E80082FD2EC049
:104C90008091E80080FFEBCF2091F3008091F2003B
:104CA00090E0922B6115710551F08830910538F430
:104CB00021912093F100615071090196F3CF21E019
:104CC000089709F020E08091E8008E778093E80053
:104CD000CECF2111CFCF0AC080912104882361F06B
:104CE000853061F08091E80083FD0AC08091E80082
:104CF00082FFF2CF80E0089582E0089583E0089576
:104D000081E00895CF93DF93CDB7DEB762970FB6FA
:104D1000F894DEBF0FBECDBF84B7877F84BF0FB6C8
:104D2000F894A8958091600088618093600010924B
:104D300060000FBE90E080E80FB6F89480936100A9
:104D4000909361000FBE85B7806885BF85B7806886
:104D500085BF0E94DD2C0E94FC2C8091E2008460C3
:104D60008093E20082E395E290939502809394020F
:104D70007894809121048823A1F01091E9001F709C
:104D80009091EC00892F817090FD80E8182B109293
:104D9000E9008091E80083FD0E94CE291F701093E6
:104DA000E90082E084BD93E095BD9AEF97BD8093C2
:104DB0006E0086EF0E94181485EF0E94181484EF8D
:104DC0000E94181481EF0E9418140DE312E049E4C8
:104DD000E42E42E0F42EF80181918F010E94181414
:104DE000E016F106C1F71092CC031092CB0310929B
:104DF000DD031092DC031092CE031092CD031092CB
:104E0000DF031092DE031092D0031092CF031092B2
:104E1000E1031092E0031092D2031092D10310929A
:104E2000E3031092E2030E9480168FE39CE901974E
:104E3000F1F700C000000E9480168091DC0380FF23
:104E400008C06FEF7FEF80E090E00E9494340E94F2
:104E5000FF1980E090E00E9470348C3E9E4F11F06C
:104E60000E94C21B8CE090E00E94683490E0A0E0B9
:104E7000B0E08093C7039093C803A093C903B09395
:104E8000CA038091F10380FF0EC08091C7031F9277
:104E90008F9388EB9BE09F938F930E945F080F9006
:104EA0000F900F900F9080E090E00E9470348C3E45
:104EB0009E4F11F00E94C21B82E090E00E94683475
:104EC0008093F1030E94B11B9093D8038093D70382
:104ED00083E090E00E946834682F70E080E090E00A
:104EE0000E94FB1D8EEB91E09093DA038093D9032F
:104EF0008DE19CE00E94C6075524539480912104C3
:104F0000853009F03FC089E19CE00E94C60780918E
:104F10002104843021F11092DB0320E488E190E049
:104F20000FB6F894A895809360000FBE20936000A0
:104F300083B7817F846083BF83B7816083BF7894A8
:104F4000889583B78E7F83BF0FB6F894A89580911C
:104F50006000886180936000109260000FBE8091B5
:104F60002004882309F4CACF0E948016ECEDF3E0F8
:104F700081919191892B09F0CAC123E0E43EF207A7
:104F8000B9F7BCCF0E94801632EFE32E33E0F32E48
:104F90004CED53E05A8B498B412C312CE989FA892D
:104FA000A190B190FA8BE98BF701C080D180CA241F
:104FB000DB24C114D10409F477C08091F10381FD91
:104FC00004C0912C01E010E069C088EE9BE00E94D3
:104FD000C6072CED822E23E0922E612C712C7F923D
:104FE0006F9223EE3BE03F932F930E945F0880EE89
:104FF0009BE00E94C607F40180810181F2E08F0EE0
:10500000911C0E94C915182F802F0E94C915212FAD
:1050100030E0322F2227A901482BCA019F938F939A
:105020008AED9BE09F938F930E945F0888ED9BE041
:105030000E94C607FFEF6F1A7F0A0FB6F894DEBF13
:105040000FBECDBF34E06316710449F6BACF9F821C
:10505000388621E0C50180239123892B09F420E0C3
:1050600029870E94511A8160782F9B878A874F81F8
:10507000588569858B850E944C20F701808191813C
:1050800080279127918380834394F3E0F41528F1DE
:105090009394000F111F2CE0921631F0C60180236B
:1050A0009123892BA9F3D3CF339432E0E30EF11C83
:1050B00044E0341273CF411010C08FEF8C878D877E
:1050C0001E860E94511A8160782F988B8F874C859D
:1050D0005D856E8588890E944C2086E0EAEEF3E0CB
:1050E000DE01119601900D928A95E1F7E090EC03B4
:1050F000F090ED030091EE031091EF031092EC039A
:105100001092ED031092EE031092EF03E11003C032
:10511000FF2009F45BC08091E8039091E9030E94AD
:10512000361AAC019091E703992339F02091BD0123
:1051300030E02417350758F049C02091BC018AE0BF
:10514000289F900111242417350718F03FC09F3F76
:1051500019F09F5F9093E703EE2061F00E944E19D3
:105160001E1414F09FEF01C091E0899F802D11243F
:105170008093EC03FF2061F00E944E191F1414F07D
:105180009FEF01C091E0899F802D11248093ED0352
:105190003091EC033323D1F02091ED032223B1F0C1
:1051A00045EB3403C0011124992319F09093EC03CB
:1051B00002C05092EC0355EB2503C0011124992342
:1051C00019F09093ED0302C05092ED03011103C05A
:1051D000112309F44FC08091E5039091E6030E94EA
:1051E000361A9C019091E403992309F4A6C0253650
:1051F000310508F43FC09F3F19F09F5F9093E4038F
:10520000002361F00E941519101614F09FEF01C0E1
:1052100091E0899F802D11248093EE03112361F08A
:105220000E941519111614F09FEF01C091E0899F9B
:10523000802D11248093EF033091EE033323D1F0BE
:105240002091EF032223B1F045EB3403C001112478
:10525000992319F09093EE0302C05092EE0355EBA0
:105260002503C0011124992319F09093EF0302C084
:105270005092EF038091EC0381110BC08091ED03FC
:10528000811107C08091EE03811103C08091EF036B
:1052900081110E945D1AEB82FC820D831E8386E0E1
:1052A000FE013196AAEEB3E001900D928A95E1F7E6
:1052B0000E94BA1E9091F003891709F41FCE0E9434
:1052C000BA1E182F8093F0038091F10382FF16CE4F
:1052D00080FF04C086E09CE00E94C6078091F10335
:1052E00080FF0CC01F921F9381E09CE09F938F93DF
:1052F0000E945F080F900F900F900F908091F10324
:1053000080FFFCCD8FEF9BE00E94C607F7CD80E1C8
:1053100089BD82E189BD09B400FEFDCF8091D8002E
:105320008F7D8093D8008091E00082608093E000C0
:105330008091E00081FDFCCFE1CD2D32314008F0BD
:105340005CCF98CFEF92FF920F931F93CF93DF9391
:105350007C018B010E949D25811119C0E701011577
:105360001105A1F08091E80085FD0AC08091E80058
:105370008E778093E8000E949D25882381F307C0E3
:1053800089918093F10001501109E9CF80E0DF910C
:10539000CF911F910F91FF90EF9008951F93CF939E
:1053A000DF93CDB7DEB7AA970FB6F894DEBF0FBE76
:1053B000CDBFE3E2F4E08BE294E02091F100219391
:1053C0008E179F07D1F780912404833009F460C0C1
:1053D00030F4813071F0823009F49AC0B1C08A3063
:1053E00009F486C08B3009F46BC0893009F0A8C07D
:1053F00020C080912304813A09F0A2C08091E80086
:10540000877F8093E8008091270490912804892B5E
:1054100021F460E28FEF93E003C060E080E090E071
:1054200070E00E9424268091E8008B778093E8004A
:1054300087C080912304813209F082C080912704C3
:1054400090912804029708F07BC08091E800877F44
:105450008093E8008091E80082FD05C080912104DE
:105460008111F8CF6DC02091F3008091F20090E09F
:10547000922B029729F48091F1008B7F813021F4E7
:105480008091F1008093FE038091E8008B7754C0F7
:1054900080912304813A09F053C0809127049091B0
:1054A0002804892B09F04CC08091E800877F809305
:1054B000E8008091E80080FFFCCF8091C80137C0F0
:1054C000809123048132E1F5809127049091280492
:1054D000892BB1F58091E800877F8093E8000E94D6
:1054E000D025809125048093C8010E94323128C0C4
:1054F00080912304813221F58091E800877F809399
:10550000E8000E94D025809126048093FD0318C0F6
:1055100080912304813AA1F48091E800877F8093F1
:10552000E8008091E80080FFFCCF8091FD0380932C
:10553000F1008091E8008E778093E8000E94D025EA
:105540008091E80083FFD7C18091230490912404C7
:10555000492F50E04A30510508F0CDC1FA01EF550E
:10556000FF4F0C94CA34803821F0823809F0C3C14F
:1055700008C080911F0490912004992389F08260D3
:105580000FC0809127048F70873008F0B4C18093DA
:10559000E9008091EB0085FB882780F91092E900F3
:1055A0009091E800977F9093E8008093F10010922B
:1055B000F1006FC1282F2D7F09F09DC1882319F0BC
:1055C000823061F098C180912504813009F093C147
:1055D000933009F080E0809320042EC08091250450
:1055E00081112AC0809127048F702FEF280F263059
:1055F00008F081C18093E9002091EB0020FF1CC0DE
:10560000933021F48091EB00806214C09091EB0004
:1056100090619093EB0021E030E0A90102C0440FBB
:10562000551F8A95E2F74093EA001092EA008091B4
:10563000EB0088608093EB001092E9008091E80015
:10564000877F8093E8000E94D02555C1811153C106
:10565000109125041F778091E3008078812B80933F
:10566000E3008091E800877F8093E8000E94D025C6
:105670008091E80080FFFCCF8091E30080688093F8
:10568000E300111102C082E001C083E08093210495
:1056900032C18058823008F02EC12091250430910B
:1056A00026042C3D53E0350779F583E08A838AE2AE
:1056B00089834FB7F894DE01139620E03EE051E273
:1056C000E32FF0E050935700E49120FF03C0E295F0
:1056D000EF703F5FEF708E2F90E0EA3010F0C796CA
:1056E00001C0C0968D939D932F5F243149F74FBF22
:1056F0008091E800877F8093E8006AE270E0CE0145
:1057000001960E942426B4C0809127049091280419
:10571000432F552743305105A9F068F44130510516
:1057200009F4F8C04230510509F0E5C08BE590E07E
:10573000E0E6FDE04BC04132510529F1423251050E
:1057400089F1D9C0C901992781309105A1F058F09C
:10575000029709F0D0C0EDECFDE0E4918E2F90E0CF
:10576000EDECFDE030C0E5EFFDE0E4918E2F90E040
:10577000E5EFFDE028C0EDEDFDE0E4918E2F90E037
:10578000EDEDFDE020C08330910508F0B4C0880F36
:10579000991FFC01EE5AFD4F0190F081E02D89E048
:1057A00090E014C08330910508F0A5C0FC01EE0F15
:1057B000FF1FE45BFD4F0190F081E02DDC01A75B52
:1057C000BD4F8C9190E0009709F495C02091E800BE
:1057D000277F2093E8002091290430912A0428177C
:1057E000390708F4C90140E0009789F120912104AC
:1057F000222309F43DC02530D9F12091E80023FD92
:1058000037C02091E80022FD2FC02091E80020FF42
:10581000EBCF4091F3002091F20030E0342B009761
:1058200059F02830310540F444914093F10031960D
:1058300001972F5F3F4FF3CF41E02830310509F04A
:1058400040E02091E8002E772093E800CDCF411171
:10585000CDCF0AC080912104882351F0853041F0DA
:105860008091E80083FD04C08091E80082FFF2CFC0
:105870008091E8008B778093E8003DC08038D9F5AF
:105880008091E800877F8093E800809122048093D4
:10589000F1008091E8008E77D4CE81112CC08091E8
:1058A000250490912604992702972CF58091E80011
:1058B000877F8093E80010912504109322040E94B2
:1058C000D025111106C08091E30087FD02C081E060
:1058D00001C084E08093210442E061EC81E00E94F9
:1058E000EF2542E261EC82E00E94EF2542E261ECAA
:1058F00083E00E94EF258091E80083FF10C0809133
:10590000E800877F8093E8008091EB0080628093BD
:10591000EB0005C082E190E0EBEBFDE057CFAA96EB
:105920000FB6F894DEBF0FBECDBFDF91CF911F91B0
:1059300008951F920F920FB60F9211242F933F9349
:105940004F935F936F937F938F939F93AF93BF9387
:10595000CF93DF93EF93FF93C091E900CF708091D5
:10596000EC00D82FD17080FDD0E81092E900809132
:10597000F000877F8093F00078940E94CE291092E7
:10598000E9008091F00088608093F000CD2BCF700B
:10599000C093E900FF91EF91DF91CF91BF91AF915B
:1059A0009F918F917F916F915F914F913F912F9137
:1059B0000F900FBE0F901F901895E8EDF0E08081DA
:1059C0008E7F80831092E2001092DA001092E10044
:1059D000A0EEB0E08C9181608C9380818F77808382
:1059E00019BCA7EDB0E08C918E7F8C9380818F7E67
:1059F00080831092FC030895CF92DF92EF92FF9282
:105A00000F931F93CF93DF93C8EDD0E088818F7EF3
:105A10008883E7EDF0E080818160808384E082BF4D
:105A200081E08093FC0388818E7F888302EE10E002
:105A3000F80110821092DA0081EEC82ED12CF60106
:105A4000108288818F7788838881806888838881A5
:105A50008F7D888319BC1092210410922204109229
:105A6000200410921F0490EEE92EF12CF7018081A2
:105A70008B7F808388818160888342E060E080E062
:105A80000E94EF25F60180818E7F8083F80180815E
:105A900081608083808188608083F70180818E7F30
:105AA0008083888180618883DF91CF911F910F91DE
:105AB000FF90EF90DF90CF9008951F920F920FB656
:105AC0000F9211242F933F934F935F936F937F9384
:105AD0008F939F93AF93BF93EF93FF938091E100D8
